{
  "contractName": "LoyaltyPointsSystem",
  "abi": [
    {
      "inputs": [],
      "stateMutability": "nonpayable",
      "type": "constructor"
    },
    {
      "anonymous": false,
      "inputs": [
        {
          "indexed": true,
          "internalType": "address",
          "name": "user",
          "type": "address"
        },
        {
          "indexed": false,
          "internalType": "uint256",
          "name": "amount",
          "type": "uint256"
        },
        {
          "indexed": false,
          "internalType": "uint256",
          "name": "issuanceTimestamp",
          "type": "uint256"
        }
      ],
      "name": "PointsEarned",
      "type": "event"
    },
    {
      "anonymous": false,
      "inputs": [
        {
          "indexed": true,
          "internalType": "address",
          "name": "user",
          "type": "address"
        },
        {
          "indexed": false,
          "internalType": "uint256",
          "name": "amount",
          "type": "uint256"
        }
      ],
      "name": "PointsRedeemed",
      "type": "event"
    },
    {
      "inputs": [
        {
          "internalType": "address",
          "name": "",
          "type": "address"
        }
      ],
      "name": "issuanceTimestamp",
      "outputs": [
        {
          "internalType": "uint256",
          "name": "",
          "type": "uint256"
        }
      ],
      "stateMutability": "view",
      "type": "function",
      "constant": true
    },
    {
      "inputs": [
        {
          "internalType": "address",
          "name": "",
          "type": "address"
        }
      ],
      "name": "loyaltyPoints",
      "outputs": [
        {
          "internalType": "uint256",
          "name": "",
          "type": "uint256"
        }
      ],
      "stateMutability": "view",
      "type": "function",
      "constant": true
    },
    {
      "inputs": [],
      "name": "loyaltyPointsValidityDuration",
      "outputs": [
        {
          "internalType": "uint256",
          "name": "",
          "type": "uint256"
        }
      ],
      "stateMutability": "view",
      "type": "function",
      "constant": true
    },
    {
      "stateMutability": "payable",
      "type": "receive",
      "payable": true
    },
    {
      "inputs": [
        {
          "internalType": "uint256",
          "name": "amount",
          "type": "uint256"
        }
      ],
      "name": "earnPoints",
      "outputs": [],
      "stateMutability": "payable",
      "type": "function",
      "payable": true
    },
    {
      "inputs": [
        {
          "internalType": "uint256",
          "name": "amount",
          "type": "uint256"
        }
      ],
      "name": "redeemPoints",
      "outputs": [],
      "stateMutability": "nonpayable",
      "type": "function"
    },
    {
      "inputs": [
        {
          "internalType": "address",
          "name": "user",
          "type": "address"
        }
      ],
      "name": "getUserPoints",
      "outputs": [
        {
          "internalType": "uint256",
          "name": "",
          "type": "uint256"
        }
      ],
      "stateMutability": "view",
      "type": "function",
      "constant": true
    },
    {
      "inputs": [
        {
          "internalType": "uint256",
          "name": "duration",
          "type": "uint256"
        }
      ],
      "name": "setLoyaltyPointsValidityDuration",
      "outputs": [],
      "stateMutability": "nonpayable",
      "type": "function"
    },
    {
      "inputs": [
        {
          "internalType": "uint256",
          "name": "maxShoppingAmount",
          "type": "uint256"
        }
      ],
      "name": "claimRandomReward",
      "outputs": [],
      "stateMutability": "nonpayable",
      "type": "function"
    }
  ],
  "bytecode": "0x60806040526301e13380600255348015610017575f80fd5b50610f08806100255f395ff3fe60806040526004361061007e575f3560e01c8063d45e42591161004d578063d45e425914610131578063e92e92e71461016d578063e95f415f14610195578063fea761af146101bf57610085565b80633f1770e11461008957806385932345146100b1578063aeefe31f146100cd578063b92bd2661461010957610085565b3661008557005b5f80fd5b348015610094575f80fd5b506100af60048036038101906100aa919061092b565b6101fb565b005b6100cb60048036038101906100c6919061092b565b610205565b005b3480156100d8575f80fd5b506100f360048036038101906100ee91906109b0565b610371565b60405161010091906109ea565b60405180910390f35b348015610114575f80fd5b5061012f600480360381019061012a919061092b565b6103b6565b005b34801561013c575f80fd5b50610157600480360381019061015291906109b0565b610604565b60405161016491906109ea565b60405180910390f35b348015610178575f80fd5b50610193600480360381019061018e919061092b565b610618565b005b3480156101a0575f80fd5b506101a961084c565b6040516101b691906109ea565b60405180910390f35b3480156101ca575f80fd5b506101e560048036038101906101e091906109b0565b610852565b6040516101f291906109ea565b60405180910390f35b8060028190555050565b5f8111610247576040517f08c379a000000000000000000000000000000000000000000000000000000000815260040161023e90610a5d565b60405180910390fd5b8034101561028a576040517f08c379a000000000000000000000000000000000000000000000000000000000815260040161028190610ac5565b60405180910390fd5b805f803373ffffffffffffffffffffffffffffffffffffffff1673ffffffffffffffffffffffffffffffffffffffff1681526020019081526020015f205f8282546102d59190610b10565b925050819055504260015f3373ffffffffffffffffffffffffffffffffffffffff1673ffffffffffffffffffffffffffffffffffffffff1681526020019081526020015f20819055503373ffffffffffffffffffffffffffffffffffffffff167f4b97a5e5e9b332836eea24e70b760c1ffce3041c0eb15309837d180f8bfff26a8242604051610366929190610b43565b60405180910390a250565b5f805f8373ffffffffffffffffffffffffffffffffffffffff1673ffffffffffffffffffffffffffffffffffffffff1681526020019081526020015f20549050919050565b5f805f3373ffffffffffffffffffffffffffffffffffffffff1673ffffffffffffffffffffffffffffffffffffffff1681526020019081526020015f205411610434576040517f08c379a000000000000000000000000000000000000000000000000000000000815260040161042b90610bb4565b60405180910390fd5b60025460015f3373ffffffffffffffffffffffffffffffffffffffff1673ffffffffffffffffffffffffffffffffffffffff1681526020019081526020015f205461047f9190610b10565b42106104c0576040517f08c379a00000000000000000000000000000000000000000000000000000000081526004016104b790610c1c565b60405180910390fd5b5f6104ca82610867565b9050600a826104d99190610c67565b81111561051b576040517f08c379a000000000000000000000000000000000000000000000000000000000815260040161051290610d07565b60405180910390fd5b60015f803373ffffffffffffffffffffffffffffffffffffffff1673ffffffffffffffffffffffffffffffffffffffff1681526020019081526020015f205f8282546105679190610d25565b925050819055503373ffffffffffffffffffffffffffffffffffffffff166108fc8290811502906040515f60405180830381858888f193505050501580156105b1573d5f803e3d5ffd5b503373ffffffffffffffffffffffffffffffffffffffff167fc37df5d14f305277c1289e9a188a097cda6684189c95f785feb056cb77a8c910826040516105f891906109ea565b60405180910390a25050565b5f602052805f5260405f205f915090505481565b5f811161065a576040517f08c379a000000000000000000000000000000000000000000000000000000000815260040161065190610a5d565b60405180910390fd5b805f803373ffffffffffffffffffffffffffffffffffffffff1673ffffffffffffffffffffffffffffffffffffffff1681526020019081526020015f205410156106d9576040517f08c379a00000000000000000000000000000000000000000000000000000000081526004016106d090610da2565b60405180910390fd5b60025460015f3373ffffffffffffffffffffffffffffffffffffffff1673ffffffffffffffffffffffffffffffffffffffff1681526020019081526020015f20546107249190610b10565b4210610765576040517f08c379a000000000000000000000000000000000000000000000000000000000815260040161075c90610c1c565b60405180910390fd5b805f803373ffffffffffffffffffffffffffffffffffffffff1673ffffffffffffffffffffffffffffffffffffffff1681526020019081526020015f205f8282546107b09190610d25565b925050819055503373ffffffffffffffffffffffffffffffffffffffff166108fc8290811502906040515f60405180830381858888f193505050501580156107fa573d5f803e3d5ffd5b503373ffffffffffffffffffffffffffffffffffffffff167fc37df5d14f305277c1289e9a188a097cda6684189c95f785feb056cb77a8c9108260405161084191906109ea565b60405180910390a250565b60025481565b6001602052805f5260405f205f915090505481565b5f80600b42443360405160200161088093929190610e25565b604051602081830303815290604052805190602001205f1c6108a29190610e61565b90505f606482856108b39190610e91565b6108bd9190610c67565b9050600a846108cc9190610c67565b8111156108e957600a846108e09190610c67565b925050506108ef565b80925050505b919050565b5f80fd5b5f819050919050565b61090a816108f8565b8114610914575f80fd5b50565b5f8135905061092581610901565b92915050565b5f602082840312156109405761093f6108f4565b5b5f61094d84828501610917565b91505092915050565b5f73ffffffffffffffffffffffffffffffffffffffff82169050919050565b5f61097f82610956565b9050919050565b61098f81610975565b8114610999575f80fd5b50565b5f813590506109aa81610986565b92915050565b5f602082840312156109c5576109c46108f4565b5b5f6109d28482850161099c565b91505092915050565b6109e4816108f8565b82525050565b5f6020820190506109fd5f8301846109db565b92915050565b5f82825260208201905092915050565b7f416d6f756e74206d7573742062652067726561746572207468616e20300000005f82015250565b5f610a47601d83610a03565b9150610a5282610a13565b602082019050919050565b5f6020820190508181035f830152610a7481610a3b565b9050919050565b7f496e73756666696369656e742065746865722073656e740000000000000000005f82015250565b5f610aaf601783610a03565b9150610aba82610a7b565b602082019050919050565b5f6020820190508181035f830152610adc81610aa3565b9050919050565b7f4e487b71000000000000000000000000000000000000000000000000000000005f52601160045260245ffd5b5f610b1a826108f8565b9150610b25836108f8565b9250828201905080821115610b3d57610b3c610ae3565b5b92915050565b5f604082019050610b565f8301856109db565b610b6360208301846109db565b9392505050565b7f4e6f206c6f79616c747920706f696e747320746f2072656465656d00000000005f82015250565b5f610b9e601b83610a03565b9150610ba982610b6a565b602082019050919050565b5f6020820190508181035f830152610bcb81610b92565b9050919050565b7f4c6f79616c747920706f696e74732065787069726564000000000000000000005f82015250565b5f610c06601683610a03565b9150610c1182610bd2565b602082019050919050565b5f6020820190508181035f830152610c3381610bfa565b9050919050565b7f4e487b71000000000000000000000000000000000000000000000000000000005f52601260045260245ffd5b5f610c71826108f8565b9150610c7c836108f8565b925082610c8c57610c8b610c3a565b5b828204905092915050565b7f526577617264206578636565647320313025206f6620746f74616c2073686f705f8201527f70696e6700000000000000000000000000000000000000000000000000000000602082015250565b5f610cf1602483610a03565b9150610cfc82610c97565b604082019050919050565b5f6020820190508181035f830152610d1e81610ce5565b9050919050565b5f610d2f826108f8565b9150610d3a836108f8565b9250828203905081811115610d5257610d51610ae3565b5b92915050565b7f496e73756666696369656e74206c6f79616c747920706f696e747300000000005f82015250565b5f610d8c601b83610a03565b9150610d9782610d58565b602082019050919050565b5f6020820190508181035f830152610db981610d80565b9050919050565b5f819050919050565b610dda610dd5826108f8565b610dc0565b82525050565b5f8160601b9050919050565b5f610df682610de0565b9050919050565b5f610e0782610dec565b9050919050565b610e1f610e1a82610975565b610dfd565b82525050565b5f610e308286610dc9565b602082019150610e408285610dc9565b602082019150610e508284610e0e565b601482019150819050949350505050565b5f610e6b826108f8565b9150610e76836108f8565b925082610e8657610e85610c3a565b5b828206905092915050565b5f610e9b826108f8565b9150610ea6836108f8565b9250828202610eb4816108f8565b91508282048414831517610ecb57610eca610ae3565b5b509291505056fea26469706673582212202296e85a4fa37bb2e77c7d563d062f3108584a7960e493dbc07e61b2a19bc00b64736f6c63430008150033",
  "immutableReferences": {},
  "source": "// SPDX-License-Identifier: MIT\r\npragma solidity ^0.8.0;\r\n\r\ncontract LoyaltyPointsSystem {\r\n    mapping(address => uint256) public loyaltyPoints;\r\n    mapping(address => uint256) public issuanceTimestamp;\r\n\r\n    uint256 public loyaltyPointsValidityDuration = 365 days;\r\n\r\n    event PointsEarned(address indexed user, uint256 amount, uint256 issuanceTimestamp);\r\n    event PointsRedeemed(address indexed user, uint256 amount);\r\n\r\n    constructor() {}\r\n\r\n    function earnPoints(uint256 amount) external payable {\r\n        require(amount > 0, \"Amount must be greater than 0\");\r\n        require(msg.value >= amount, \"Insufficient ether sent\");\r\n\r\n        loyaltyPoints[msg.sender] += amount;\r\n        issuanceTimestamp[msg.sender] = block.timestamp;\r\n\r\n        emit PointsEarned(msg.sender, amount, block.timestamp);\r\n    }\r\n\r\n    function redeemPoints(uint256 amount) external {\r\n        require(amount > 0, \"Amount must be greater than 0\");\r\n        require(loyaltyPoints[msg.sender] >= amount, \"Insufficient loyalty points\");\r\n        require(block.timestamp < issuanceTimestamp[msg.sender] + loyaltyPointsValidityDuration, \"Loyalty points expired\");\r\n\r\n        loyaltyPoints[msg.sender] -= amount;\r\n        payable(msg.sender).transfer(amount);\r\n\r\n        emit PointsRedeemed(msg.sender, amount);\r\n    }\r\n\r\n    function getUserPoints(address user) external view returns (uint256) {\r\n        return loyaltyPoints[user];\r\n    }\r\n\r\n    function setLoyaltyPointsValidityDuration(uint256 duration) external {\r\n        loyaltyPointsValidityDuration = duration;\r\n    }\r\n\r\n    function getRandomReward(uint256 maxAmount) internal view returns (uint256) {\r\n        uint256 randomFactor = uint256(keccak256(abi.encodePacked(block.timestamp, block.prevrandao, msg.sender))) % 11;\r\n        uint256 reward = (maxAmount * randomFactor) / 100;\r\n\r\n        if (reward > maxAmount / 10) {\r\n            return maxAmount / 10;\r\n        }\r\n\r\n        return reward;\r\n    }\r\n\r\n    function claimRandomReward(uint256 maxShoppingAmount) external {\r\n        require(loyaltyPoints[msg.sender] > 0, \"No loyalty points to redeem\");\r\n        require(block.timestamp < issuanceTimestamp[msg.sender] + loyaltyPointsValidityDuration, \"Loyalty points expired\");\r\n\r\n        uint256 rewardAmount = getRandomReward(maxShoppingAmount);\r\n        require(rewardAmount <= maxShoppingAmount / 10, \"Reward exceeds 10% of total shopping\");\r\n\r\n        loyaltyPoints[msg.sender] -= 1;\r\n        payable(msg.sender).transfer(rewardAmount);\r\n\r\n        emit PointsRedeemed(msg.sender, rewardAmount);\r\n    }\r\n\r\n    // Fallback function to receive Ether\r\n    receive() external payable {}\r\n}\r\n",
  "sourcePath": "H:\\React\\HTML\\loyalty\\ethereum\\contracts\\LoyaltyPointsSystem.sol",
  "compiler": {
    "name": "solc",
    "version": "0.8.21+commit.d9974bed.Emscripten.clang"
  },
  "schemaVersion": "3.4.15",
  "updatedAt": "2023-08-19T09:23:27.965Z",
  "networkType": "ethereum",
  "devdoc": {
    "kind": "dev",
    "methods": {},
    "version": 1
  },
  "userdoc": {
    "kind": "user",
    "methods": {},
    "version": 1
  }
}